S00D000070617274322E737265632E
S113000045C0000053C0000051C000004FC00000B4
S11300104DC000004BC0000049C0000047C00000B4
S113002045C0000043C0000041C000003FC00000C4
S11300303DC000003BC0000039C0000037C00000D4
S113004035C0000033C0000031C000002FC00000E4
S11300502DC000002BC0000029C0000027C00000F4
S113006025C0000023C0000021C000001FC0000004
S11300701DC000001BC0000019C0000017C0000014
S113008015C0000013C0000011C0000011241FBEE1
S1130090CFEFD0E4DEBFCDBF21E0A0E0B1E001C0EE
S11300A01D92A130B207E1F770D079C0A9CF809139
S11300B00001823031F128F4882349F0813059F06D
S11300C046C0843031F108F18530A1F140C081E0AF
S11300D080930001089580B1813021F482E08093FF
S11300E0000143C080B1823021F483E08093000199
S11300F043C080B1833009F047C085E0809300019C
S113010042C084E080930001089584E0809300015C
S1130110089580B18130C1F180B18230A9F180B1FC
S1130120833021F485E0809300012DC081E0809329
S11301300001089580B1813031F180B1823019F12C
S113014080B1833001F581E080930001089582300D
S113015061F018F4882331F00895833069F0853014
S113016091F0089587E088B9089588B1893060F4E2
S113017088B18F5F88B9089588B1882329F088B140
S1130180815088B9089518B8089511B88FEF82B9CD
S113019087B987E088B91092000189DFFECFF8940F
S10501A0FFCF8B
S9030000FC
